{
  "contractName": "SimpleContract",
  "abi": [
    {
      "inputs": [
        {
          "internalType": "string",
          "name": "_message",
          "type": "string"
        }
      ],
      "stateMutability": "nonpayable",
      "type": "constructor"
    },
    {
      "inputs": [],
      "name": "message",
      "outputs": [
        {
          "internalType": "string",
          "name": "",
          "type": "string"
        }
      ],
      "stateMutability": "view",
      "type": "function",
      "constant": true
    },
    {
      "inputs": [
        {
          "internalType": "string",
          "name": "_newMessage",
          "type": "string"
        }
      ],
      "name": "setMessage",
      "outputs": [],
      "stateMutability": "nonpayable",
      "type": "function"
    }
  ],
  "bytecode": "0x608060405234801561001057600080fd5b506040516106a43803806106a483398101604081905261002f91610071565b600061003b82826101dc565b50506102a1565b7f4e487b7100000000000000000000000000000000000000000000000000000000600052604160045260246000fd5b6000602080838503121561008457600080fd5b82516001604060020a038082111561009b57600080fd5b818501915085601f8301126100af57600080fd5b8151818111156100c1576100c1610042565b604051601f8201601f19908116603f011681019083821181831017156100e9576100e9610042565b81604052828152888684870101111561010157600080fd5b600093505b828410156101235784840186015181850187015292850192610106565b600086848301015280965050505050505092915050565b60028104600182168061014e57607f821691505b602082108103610187577f4e487b7100000000000000000000000000000000000000000000000000000000600052602260045260246000fd5b50919050565b601f8211156101d7576000818152602081206020601f860104810160208610156101b45750805b6020601f860104820191505b818110156101d3578281556001016101c0565b5050505b505050565b81516001604060020a038111156101f5576101f5610042565b61020981610203845461013a565b8461018d565b602080601f83116001811461024257600084156102265750858301515b60028086026008870290910a60001904198216178655506101d3565b600085815260208120601f198616915b8281101561027157888601518255948401946001909101908401610252565b508582101561029157878501516008601f88160260020a60001904191681555b5050505050600202600101905550565b6103f4806102b06000396000f3fe608060405234801561001057600080fd5b5060043610610052577c01000000000000000000000000000000000000000000000000000000006000350463368b87728114610057578063e21f37ce1461006c575b600080fd5b61006a610065366004610157565b61008a565b005b61007461009a565b6040516100819190610208565b60405180910390f35b600061009682826102f8565b5050565b600080546100a790610256565b80601f01602080910402602001604051908101604052809291908181526020018280546100d390610256565b80156101205780601f106100f557610100808354040283529160200191610120565b820191906000526020600020905b81548152906001019060200180831161010357829003601f168201915b505050505081565b7f4e487b7100000000000000000000000000000000000000000000000000000000600052604160045260246000fd5b60006020828403121561016957600080fd5b813567ffffffffffffffff8082111561018157600080fd5b818401915084601f83011261019557600080fd5b8135818111156101a7576101a7610128565b604051601f8201601f19908116603f011681019083821181831017156101cf576101cf610128565b816040528281528760208487010111156101e857600080fd5b826020860160208301376000928101602001929092525095945050505050565b600060208083528351808285015260005b8181101561023557858101830151858201604001528201610219565b506000604082860101526040601f19601f8301168501019250505092915050565b60028104600182168061026a57607f821691505b6020821081036102a3577f4e487b7100000000000000000000000000000000000000000000000000000000600052602260045260246000fd5b50919050565b601f8211156102f3576000818152602081206020601f860104810160208610156102d05750805b6020601f860104820191505b818110156102ef578281556001016102dc565b5050505b505050565b815167ffffffffffffffff81111561031257610312610128565b610326816103208454610256565b846102a9565b602080601f83116001811461035f57600084156103435750858301515b60028086026008870290910a60001904198216178655506102ef565b600085815260208120601f198616915b8281101561038e5788860151825594840194600190910190840161036f565b50858210156103ae57878501516008601f88160260020a60001904191681555b505050505060020260010190555056fea2646970667358221220cedab6b98b99a67ccb9bbe9b29dc23389297f7d59fccf13fd97b3001096ea2f564736f6c63430008150033",
  "immutableReferences": {},
  "source": "// SPDX-License-Identifier: MIT\npragma solidity ^0.8.0; //  Solidity 0.8.0  \n\n// : SimpleContract    .\ncontract SimpleContract {\n    string public message;\n\n    //    \n    constructor(string memory _message) {\n        message = _message;\n    }\n\n    //    \n    function setMessage(string memory _newMessage) public {\n        message = _newMessage;\n    }\n}\n",
  "sourcePath": "/Users/j.yoon/Desktop/Jungah/deploy_practice_truffle/contracts/SimpleContract.sol",
  "compiler": {
    "name": "solc",
    "version": "0.8.21+commit.d9974bed.Emscripten.clang"
  },
  "schemaVersion": "3.4.16",
  "updatedAt": "2025-03-21T07:39:29.651Z",
  "networkType": "ethereum",
  "devdoc": {
    "kind": "dev",
    "methods": {},
    "version": 1
  },
  "userdoc": {
    "kind": "user",
    "methods": {},
    "version": 1
  }
}